{"abi":[{"type":"constructor","inputs":[],"stateMutability":"nonpayable"},{"type":"function","name":"getVerifiedWorldIDV3ProofData","inputs":[{"name":"walletAddress","type":"address","internalType":"address"}],"outputs":[{"name":"_verifiedWorldIDV3ProofData","type":"tuple","internalType":"struct DataTypes.VerifiedWorldIDV3ProofData","components":[{"name":"appId","type":"string","internalType":"string"},{"name":"actionId","type":"string","internalType":"string"},{"name":"rpId","type":"string","internalType":"string"},{"name":"nonce","type":"uint256","internalType":"uint256"},{"name":"identifier","type":"string","internalType":"string"},{"name":"merkleRoot","type":"uint256","internalType":"uint256"},{"name":"nullifier","type":"uint256","internalType":"uint256"},{"name":"proof","type":"string","internalType":"string"},{"name":"signalHash","type":"uint256","internalType":"uint256"},{"name":"environment","type":"string","internalType":"string"},{"name":"protocolVersion","type":"string","internalType":"string"}]}],"stateMutability":"nonpayable"},{"type":"function","name":"hasWorldIDV3Badge","inputs":[{"name":"walletAddress","type":"address","internalType":"address"}],"outputs":[{"name":"_hasWorldIdV3Badge","type":"bool","internalType":"bool"}],"stateMutability":"view"},{"type":"function","name":"storeVerifiedWorldIDV3ProofData","inputs":[{"name":"appId","type":"string","internalType":"string"},{"name":"actionId","type":"string","internalType":"string"},{"name":"rpId","type":"string","internalType":"string"},{"name":"nonce","type":"uint256","internalType":"uint256"},{"name":"identifier","type":"string","internalType":"string"},{"name":"merkleRoot","type":"uint256","internalType":"uint256"},{"name":"nullifier","type":"uint256","internalType":"uint256"},{"name":"proof","type":"string","internalType":"string"},{"name":"signalHash","type":"uint256","internalType":"uint256"},{"name":"environment","type":"string","internalType":"string"},{"name":"protocolVersion","type":"string","internalType":"string"}],"outputs":[],"stateMutability":"nonpayable"},{"type":"function","name":"verifiedWorldIDV3ProofDatas","inputs":[{"name":"","type":"address","internalType":"address"}],"outputs":[{"name":"appId","type":"string","internalType":"string"},{"name":"actionId","type":"string","internalType":"string"},{"name":"rpId","type":"string","internalType":"string"},{"name":"nonce","type":"uint256","internalType":"uint256"},{"name":"identifier","type":"string","internalType":"string"},{"name":"merkleRoot","type":"uint256","internalType":"uint256"},{"name":"nullifier","type":"uint256","internalType":"uint256"},{"name":"proof","type":"string","internalType":"string"},{"name":"signalHash","type":"uint256","internalType":"uint256"},{"name":"environment","type":"string","internalType":"string"},{"name":"protocolVersion","type":"string","internalType":"string"}],"stateMutability":"view"}],"bytecode":{"object":"0x6080604052348015600f57600080fd5b506114438061001f6000396000f3fe608060405234801561001057600080fd5b506004361061004c5760003560e01c8063180d6e82146100515780632754f78014610079578063a965de4314610099578063bcb27e2e146100ae575b600080fd5b61006461005f366004610e86565b6100d8565b60405190151581526020015b60405180910390f35b61008c610087366004610e86565b610547565b6040516100709190610efc565b6100ac6100a73660046110a8565b6109ec565b005b6100c16100bc366004610e86565b610a7c565b6040516100709b9a9998979695949392919061120e565b6001600160a01b038116600090815260208190526040808220815161016081019092528054839291908290829061010e906112c6565b80601f016020809104026020016040519081016040528092919081815260200182805461013a906112c6565b80156101875780601f1061015c57610100808354040283529160200191610187565b820191906000526020600020905b81548152906001019060200180831161016a57829003601f168201915b505050505081526020016001820180546101a0906112c6565b80601f01602080910402602001604051908101604052809291908181526020018280546101cc906112c6565b80156102195780601f106101ee57610100808354040283529160200191610219565b820191906000526020600020905b8154815290600101906020018083116101fc57829003601f168201915b50505050508152602001600282018054610232906112c6565b80601f016020809104026020016040519081016040528092919081815260200182805461025e906112c6565b80156102ab5780601f10610280576101008083540402835291602001916102ab565b820191906000526020600020905b81548152906001019060200180831161028e57829003601f168201915b50505050508152602001600382015481526020016004820180546102ce906112c6565b80601f01602080910402602001604051908101604052809291908181526020018280546102fa906112c6565b80156103475780601f1061031c57610100808354040283529160200191610347565b820191906000526020600020905b81548152906001019060200180831161032a57829003601f168201915b505050505081526020016005820154815260200160068201548152602001600782018054610374906112c6565b80601f01602080910402602001604051908101604052809291908181526020018280546103a0906112c6565b80156103ed5780601f106103c2576101008083540402835291602001916103ed565b820191906000526020600020905b8154815290600101906020018083116103d057829003601f168201915b5050505050815260200160088201548152602001600982018054610410906112c6565b80601f016020809104026020016040519081016040528092919081815260200182805461043c906112c6565b80156104895780601f1061045e57610100808354040283529160200191610489565b820191906000526020600020905b81548152906001019060200180831161046c57829003601f168201915b50505050508152602001600a820180546104a2906112c6565b80601f01602080910402602001604051908101604052809291908181526020018280546104ce906112c6565b801561051b5780601f106104f05761010080835404028352916020019161051b565b820191906000526020600020905b8154815290600101906020018083116104fe57829003601f168201915b5050509190925250505060c0810151909150801561053d575060019392505050565b5060009392505050565b6105a460405180610160016040528060608152602001606081526020016060815260200160008152602001606081526020016000815260200160008152602001606081526020016000815260200160608152602001606081525090565b33600090815260208190526040808220815161016081019092528054829082906105cd906112c6565b80601f01602080910402602001604051908101604052809291908181526020018280546105f9906112c6565b80156106465780601f1061061b57610100808354040283529160200191610646565b820191906000526020600020905b81548152906001019060200180831161062957829003601f168201915b5050505050815260200160018201805461065f906112c6565b80601f016020809104026020016040519081016040528092919081815260200182805461068b906112c6565b80156106d85780601f106106ad576101008083540402835291602001916106d8565b820191906000526020600020905b8154815290600101906020018083116106bb57829003601f168201915b505050505081526020016002820180546106f1906112c6565b80601f016020809104026020016040519081016040528092919081815260200182805461071d906112c6565b801561076a5780601f1061073f5761010080835404028352916020019161076a565b820191906000526020600020905b81548152906001019060200180831161074d57829003601f168201915b505050505081526020016003820154815260200160048201805461078d906112c6565b80601f01602080910402602001604051908101604052809291908181526020018280546107b9906112c6565b80156108065780601f106107db57610100808354040283529160200191610806565b820191906000526020600020905b8154815290600101906020018083116107e957829003601f168201915b505050505081526020016005820154815260200160068201548152602001600782018054610833906112c6565b80601f016020809104026020016040519081016040528092919081815260200182805461085f906112c6565b80156108ac5780601f10610881576101008083540402835291602001916108ac565b820191906000526020600020905b81548152906001019060200180831161088f57829003601f168201915b50505050508152602001600882015481526020016009820180546108cf906112c6565b80601f01602080910402602001604051908101604052809291908181526020018280546108fb906112c6565b80156109485780601f1061091d57610100808354040283529160200191610948565b820191906000526020600020905b81548152906001019060200180831161092b57829003601f168201915b50505050508152602001600a82018054610961906112c6565b80601f016020809104026020016040519081016040528092919081815260200182805461098d906112c6565b80156109da5780601f106109af576101008083540402835291602001916109da565b820191906000526020600020905b8154815290600101906020018083116109bd57829003601f168201915b50505091909252509195945050505050565b33600090815260208190526040902080610a068d8261134f565b5060028101610a158b8261134f565b506003810189905560048101610a2b898261134f565b50600581018790556006810186905560078101610a48868261134f565b506008810184905560098101610a5e848261134f565b50600a8101610a6d838261134f565b50505050505050505050505050565b600060208190529081526040902080548190610a97906112c6565b80601f0160208091040260200160405190810160405280929190818152602001828054610ac3906112c6565b8015610b105780601f10610ae557610100808354040283529160200191610b10565b820191906000526020600020905b815481529060010190602001808311610af357829003601f168201915b505050505090806001018054610b25906112c6565b80601f0160208091040260200160405190810160405280929190818152602001828054610b51906112c6565b8015610b9e5780601f10610b7357610100808354040283529160200191610b9e565b820191906000526020600020905b815481529060010190602001808311610b8157829003601f168201915b505050505090806002018054610bb3906112c6565b80601f0160208091040260200160405190810160405280929190818152602001828054610bdf906112c6565b8015610c2c5780601f10610c0157610100808354040283529160200191610c2c565b820191906000526020600020905b815481529060010190602001808311610c0f57829003601f168201915b505050505090806003015490806004018054610c47906112c6565b80601f0160208091040260200160405190810160405280929190818152602001828054610c73906112c6565b8015610cc05780601f10610c9557610100808354040283529160200191610cc0565b820191906000526020600020905b815481529060010190602001808311610ca357829003601f168201915b505050505090806005015490806006015490806007018054610ce1906112c6565b80601f0160208091040260200160405190810160405280929190818152602001828054610d0d906112c6565b8015610d5a5780601f10610d2f57610100808354040283529160200191610d5a565b820191906000526020600020905b815481529060010190602001808311610d3d57829003601f168201915b505050505090806008015490806009018054610d75906112c6565b80601f0160208091040260200160405190810160405280929190818152602001828054610da1906112c6565b8015610dee5780601f10610dc357610100808354040283529160200191610dee565b820191906000526020600020905b815481529060010190602001808311610dd157829003601f168201915b50505050509080600a018054610e03906112c6565b80601f0160208091040260200160405190810160405280929190818152602001828054610e2f906112c6565b8015610e7c5780601f10610e5157610100808354040283529160200191610e7c565b820191906000526020600020905b815481529060010190602001808311610e5f57829003601f168201915b505050505090508b565b600060208284031215610e9857600080fd5b81356001600160a01b0381168114610eaf57600080fd5b9392505050565b6000815180845260005b81811015610edc57602081850181015186830182015201610ec0565b506000602082860101526020601f19601f83011685010191505092915050565b60208152600082516101606020840152610f1a610180840182610eb6565b90506020840151601f19848303016040850152610f378282610eb6565b9150506040840151601f19848303016060850152610f558282610eb6565b915050606084015160808401526080840151601f198483030160a0850152610f7d8282610eb6565b91505060a084015160c084015260c084015160e084015260e0840151601f1984830301610100850152610fb08282610eb6565b915050610100840151610120840152610120840151601f1984830301610140850152610fdc8282610eb6565b915050610140840151601f1984830301610160850152610ffc8282610eb6565b95945050505050565b634e487b7160e01b600052604160045260246000fd5b600082601f83011261102c57600080fd5b81356001600160401b0381111561104557611045611005565b604051601f8201601f19908116603f011681016001600160401b038111828210171561107357611073611005565b60405281815283820160200185101561108b57600080fd5b816020850160208301376000918101602001919091529392505050565b60008060008060008060008060008060006101608c8e0312156110ca57600080fd5b8b356001600160401b038111156110e057600080fd5b6110ec8e828f0161101b565b9b505060208c01356001600160401b0381111561110857600080fd5b6111148e828f0161101b565b9a505060408c01356001600160401b0381111561113057600080fd5b61113c8e828f0161101b565b99505060608c0135975060808c01356001600160401b0381111561115f57600080fd5b61116b8e828f0161101b565b97505060a08c0135955060c08c0135945060e08c01356001600160401b0381111561119557600080fd5b6111a18e828f0161101b565b9450506101008c013592506101208c01356001600160401b038111156111c657600080fd5b6111d28e828f0161101b565b9250506101408c01356001600160401b038111156111ef57600080fd5b6111fb8e828f0161101b565b9150509295989b509295989b9093969950565b6101608152600061122361016083018e610eb6565b8281036020840152611235818e610eb6565b90508281036040840152611249818d610eb6565b90508a60608401528281036080840152611263818b610eb6565b90508860a08401528760c084015282810360e08401526112838188610eb6565b90508561010084015282810361012084015261129f8186610eb6565b90508281036101408401526112b48185610eb6565b9e9d5050505050505050505050505050565b600181811c908216806112da57607f821691505b6020821081036112fa57634e487b7160e01b600052602260045260246000fd5b50919050565b601f82111561134a57806000526020600020601f840160051c810160208510156113275750805b601f840160051c820191505b818110156113475760008155600101611333565b50505b505050565b81516001600160401b0381111561136857611368611005565b61137c8161137684546112c6565b84611300565b6020601f8211600181146113b057600083156113985750848201515b600019600385901b1c1916600184901b178455611347565b600084815260208120601f198516915b828110156113e057878501518255602094850194600190920191016113c0565b50848210156113fe5786840151600019600387901b60f8161c191681555b50505050600190811b0190555056fea2646970667358221220f880802925aca11fa8f8764b2360ce382a21ed3cb331081f4f3519b1855182b864736f6c634300081c0033","linkReferences":{}},"methodIdentifiers":{"getVerifiedWorldIDV3ProofData(address)":"2754f780","hasWorldIDV3Badge(address)":"180d6e82","storeVerifiedWorldIDV3ProofData(string,string,string,uint256,string,uint256,uint256,string,uint256,string,string)":"a965de43","verifiedWorldIDV3ProofDatas(address)":"bcb27e2e"},"id":1}