{"abi":[{"type":"constructor","inputs":[],"stateMutability":"nonpayable"},{"type":"function","name":"getVerifiedWorldIDV3ProofData","inputs":[{"name":"walletAddress","type":"address","internalType":"address"}],"outputs":[{"name":"_verifiedWorldIDV3ProofData","type":"tuple","internalType":"struct DataTypes.VerifiedWorldIDV3ProofData","components":[{"name":"appId","type":"uint256","internalType":"uint256"},{"name":"actionId","type":"uint256","internalType":"uint256"},{"name":"rpId","type":"uint64","internalType":"uint64"},{"name":"nonce","type":"uint256","internalType":"uint256"},{"name":"identifier","type":"string","internalType":"string"},{"name":"merkleRoot","type":"uint256","internalType":"uint256"},{"name":"nullifier","type":"uint256","internalType":"uint256"},{"name":"proof","type":"string","internalType":"string"},{"name":"signalHash","type":"uint256","internalType":"uint256"},{"name":"environment","type":"string","internalType":"string"},{"name":"protocolVersion","type":"string","internalType":"string"}]}],"stateMutability":"nonpayable"},{"type":"function","name":"hasWorldIDV3Badge","inputs":[{"name":"walletAddress","type":"address","internalType":"address"}],"outputs":[{"name":"_hasWorldIdV3Badge","type":"bool","internalType":"bool"}],"stateMutability":"view"},{"type":"function","name":"storeVerifiedWorldIDV3ProofData","inputs":[{"name":"appId","type":"uint256","internalType":"uint256"},{"name":"actionId","type":"uint256","internalType":"uint256"},{"name":"rpId","type":"uint64","internalType":"uint64"},{"name":"nonce","type":"uint256","internalType":"uint256"},{"name":"identifier","type":"string","internalType":"string"},{"name":"merkleRoot","type":"uint256","internalType":"uint256"},{"name":"nullifier","type":"uint256","internalType":"uint256"},{"name":"proof","type":"string","internalType":"string"},{"name":"signalHash","type":"uint256","internalType":"uint256"},{"name":"environment","type":"string","internalType":"string"},{"name":"protocolVersion","type":"string","internalType":"string"}],"outputs":[],"stateMutability":"nonpayable"},{"type":"function","name":"verifiedWorldIDV3ProofDatas","inputs":[{"name":"","type":"address","internalType":"address"}],"outputs":[{"name":"appId","type":"uint256","internalType":"uint256"},{"name":"actionId","type":"uint256","internalType":"uint256"},{"name":"rpId","type":"uint64","internalType":"uint64"},{"name":"nonce","type":"uint256","internalType":"uint256"},{"name":"identifier","type":"string","internalType":"string"},{"name":"merkleRoot","type":"uint256","internalType":"uint256"},{"name":"nullifier","type":"uint256","internalType":"uint256"},{"name":"proof","type":"string","internalType":"string"},{"name":"signalHash","type":"uint256","internalType":"uint256"},{"name":"environment","type":"string","internalType":"string"},{"name":"protocolVersion","type":"string","internalType":"string"}],"stateMutability":"view"}],"bytecode":{"object":"0x6080604052348015600f57600080fd5b50610f228061001f6000396000f3fe608060405234801561001057600080fd5b506004361061004c5760003560e01c8063180d6e821461005157806321e78aed146100795780632754f7801461008e578063bcb27e2e146100ae575b600080fd5b61006461005f3660046109f1565b6100d8565b60405190151581526020015b60405180910390f35b61008c610087366004610ae0565b6103ba565b005b6100a161009c3660046109f1565b610450565b6040516100709190610c30565b6100c16100bc3660046109f1565b610772565b6040516100709b9a99989796959493929190610d0e565b6001600160a01b0381166000908152602081815260408083208151610160810183528154815260018201549381019390935260028101546001600160401b0316918301919091526003810154606083015260048101805484939291608084019161014190610da5565b80601f016020809104026020016040519081016040528092919081815260200182805461016d90610da5565b80156101ba5780601f1061018f576101008083540402835291602001916101ba565b820191906000526020600020905b81548152906001019060200180831161019d57829003601f168201915b5050505050815260200160058201548152602001600682015481526020016007820180546101e790610da5565b80601f016020809104026020016040519081016040528092919081815260200182805461021390610da5565b80156102605780601f1061023557610100808354040283529160200191610260565b820191906000526020600020905b81548152906001019060200180831161024357829003601f168201915b505050505081526020016008820154815260200160098201805461028390610da5565b80601f01602080910402602001604051908101604052809291908181526020018280546102af90610da5565b80156102fc5780601f106102d1576101008083540402835291602001916102fc565b820191906000526020600020905b8154815290600101906020018083116102df57829003601f168201915b50505050508152602001600a8201805461031590610da5565b80601f016020809104026020016040519081016040528092919081815260200182805461034190610da5565b801561038e5780601f106103635761010080835404028352916020019161038e565b820191906000526020600020905b81548152906001019060200180831161037157829003601f168201915b5050509190925250505060c081015190915080156103b0575060019392505050565b5060009392505050565b3360009081526020819052604090208b815560028101805467ffffffffffffffff19166001600160401b038c1617905560038101899055600481016103ff8982610e2e565b5060058101879055600681018690556007810161041c8682610e2e565b5060088101849055600981016104328482610e2e565b50600a81016104418382610e2e565b50505050505050505050505050565b6104b6604051806101600160405280600081526020016000815260200160006001600160401b0316815260200160008152602001606081526020016000815260200160008152602001606081526020016000815260200160608152602001606081525090565b336000908152602081815260408083208151610160810183528154815260018201549381019390935260028101546001600160401b0316918301919091526003810154606083015260048101805460808401919061051390610da5565b80601f016020809104026020016040519081016040528092919081815260200182805461053f90610da5565b801561058c5780601f106105615761010080835404028352916020019161058c565b820191906000526020600020905b81548152906001019060200180831161056f57829003601f168201915b5050505050815260200160058201548152602001600682015481526020016007820180546105b990610da5565b80601f01602080910402602001604051908101604052809291908181526020018280546105e590610da5565b80156106325780601f1061060757610100808354040283529160200191610632565b820191906000526020600020905b81548152906001019060200180831161061557829003601f168201915b505050505081526020016008820154815260200160098201805461065590610da5565b80601f016020809104026020016040519081016040528092919081815260200182805461068190610da5565b80156106ce5780601f106106a3576101008083540402835291602001916106ce565b820191906000526020600020905b8154815290600101906020018083116106b157829003601f168201915b50505050508152602001600a820180546106e790610da5565b80601f016020809104026020016040519081016040528092919081815260200182805461071390610da5565b80156107605780601f1061073557610100808354040283529160200191610760565b820191906000526020600020905b81548152906001019060200180831161074357829003601f168201915b50505091909252509195945050505050565b60006020819052908152604090208054600182015460028301546003840154600485018054949593946001600160401b039093169391926107b290610da5565b80601f01602080910402602001604051908101604052809291908181526020018280546107de90610da5565b801561082b5780601f106108005761010080835404028352916020019161082b565b820191906000526020600020905b81548152906001019060200180831161080e57829003601f168201915b50505050509080600501549080600601549080600701805461084c90610da5565b80601f016020809104026020016040519081016040528092919081815260200182805461087890610da5565b80156108c55780601f1061089a576101008083540402835291602001916108c5565b820191906000526020600020905b8154815290600101906020018083116108a857829003601f168201915b5050505050908060080154908060090180546108e090610da5565b80601f016020809104026020016040519081016040528092919081815260200182805461090c90610da5565b80156109595780601f1061092e57610100808354040283529160200191610959565b820191906000526020600020905b81548152906001019060200180831161093c57829003601f168201915b50505050509080600a01805461096e90610da5565b80601f016020809104026020016040519081016040528092919081815260200182805461099a90610da5565b80156109e75780601f106109bc576101008083540402835291602001916109e7565b820191906000526020600020905b8154815290600101906020018083116109ca57829003601f168201915b505050505090508b565b600060208284031215610a0357600080fd5b81356001600160a01b0381168114610a1a57600080fd5b9392505050565b80356001600160401b0381168114610a3857600080fd5b919050565b634e487b7160e01b600052604160045260246000fd5b600082601f830112610a6457600080fd5b81356001600160401b03811115610a7d57610a7d610a3d565b604051601f8201601f19908116603f011681016001600160401b0381118282101715610aab57610aab610a3d565b604052818152838201602001851015610ac357600080fd5b816020850160208301376000918101602001919091529392505050565b60008060008060008060008060008060006101608c8e031215610b0257600080fd5b8b359a5060208c01359950610b1960408d01610a21565b985060608c0135975060808c01356001600160401b03811115610b3b57600080fd5b610b478e828f01610a53565b97505060a08c0135955060c08c0135945060e08c01356001600160401b03811115610b7157600080fd5b610b7d8e828f01610a53565b9450506101008c013592506101208c01356001600160401b03811115610ba257600080fd5b610bae8e828f01610a53565b9250506101408c01356001600160401b03811115610bcb57600080fd5b610bd78e828f01610a53565b9150509295989b509295989b9093969950565b6000815180845260005b81811015610c1057602081850181015186830182015201610bf4565b506000602082860101526020601f19601f83011685010191505092915050565b60208152815160208201526020820151604082015260006040830151610c6160608401826001600160401b03169052565b5060608301516080830152608083015161016060a0840152610c87610180840182610bea565b905060a084015160c084015260c084015160e084015260e0840151601f1984830301610100850152610cb98282610bea565b915050610100840151610120840152610120840151601f1984830301610140850152610ce58282610bea565b915050610140840151601f1984830301610160850152610d058282610bea565b95945050505050565b8b81528a60208201526001600160401b038a16604082015288606082015261016060808201526000610d4461016083018a610bea565b8860a08401528760c084015282810360e0840152610d628188610bea565b905085610100840152828103610120840152610d7e8186610bea565b9050828103610140840152610d938185610bea565b9e9d5050505050505050505050505050565b600181811c90821680610db957607f821691505b602082108103610dd957634e487b7160e01b600052602260045260246000fd5b50919050565b601f821115610e2957806000526020600020601f840160051c81016020851015610e065750805b601f840160051c820191505b81811015610e265760008155600101610e12565b50505b505050565b81516001600160401b03811115610e4757610e47610a3d565b610e5b81610e558454610da5565b84610ddf565b6020601f821160018114610e8f5760008315610e775750848201515b600019600385901b1c1916600184901b178455610e26565b600084815260208120601f198516915b82811015610ebf5787850151825560209485019460019092019101610e9f565b5084821015610edd5786840151600019600387901b60f8161c191681555b50505050600190811b0190555056fea26469706673582212201578d05680f7d95f70c31e8927b9f76109f85b263d903dfdfecdb9cb0d6655ec64736f6c634300081c0033","linkReferences":{}},"methodIdentifiers":{"getVerifiedWorldIDV3ProofData(address)":"2754f780","hasWorldIDV3Badge(address)":"180d6e82","storeVerifiedWorldIDV3ProofData(uint256,uint256,uint64,uint256,string,uint256,uint256,string,uint256,string,string)":"21e78aed","verifiedWorldIDV3ProofDatas(address)":"bcb27e2e"},"id":1}