{
  "abi": [
    {
      "type": "constructor",
      "inputs": [
        {
          "name": "_worldIdRouter",
          "type": "address",
          "internalType": "contract IWorldID"
        }
      ],
      "stateMutability": "nonpayable"
    },
    {
      "type": "function",
      "name": "GROUP_ID",
      "inputs": [],
      "outputs": [
        {
          "name": "",
          "type": "uint256",
          "internalType": "uint256"
        }
      ],
      "stateMutability": "view"
    },
    {
      "type": "function",
      "name": "hasWorldIDV3Badge",
      "inputs": [
        {
          "name": "walletAddress",
          "type": "address",
          "internalType": "address"
        }
      ],
      "outputs": [
        {
          "name": "_hasWorldIdV3Badge",
          "type": "bool",
          "internalType": "bool"
        }
      ],
      "stateMutability": "view"
    },
    {
      "type": "function",
      "name": "nullifierHashes",
      "inputs": [
        {
          "name": "",
          "type": "uint256",
          "internalType": "uint256"
        }
      ],
      "outputs": [
        {
          "name": "",
          "type": "bool",
          "internalType": "bool"
        }
      ],
      "stateMutability": "view"
    },
    {
      "type": "function",
      "name": "nullifierHashesWithWalletAddresses",
      "inputs": [
        {
          "name": "",
          "type": "address",
          "internalType": "address"
        }
      ],
      "outputs": [
        {
          "name": "",
          "type": "uint256",
          "internalType": "uint256"
        }
      ],
      "stateMutability": "view"
    },
    {
      "type": "function",
      "name": "verifyWorldIDV3Proof",
      "inputs": [
        {
          "name": "root",
          "type": "uint256",
          "internalType": "uint256"
        },
        {
          "name": "signalHash",
          "type": "uint256",
          "internalType": "uint256"
        },
        {
          "name": "nullifierHash",
          "type": "uint256",
          "internalType": "uint256"
        },
        {
          "name": "externalNullifierHash",
          "type": "uint256",
          "internalType": "uint256"
        },
        {
          "name": "proof",
          "type": "uint256[8]",
          "internalType": "uint256[8]"
        }
      ],
      "outputs": [],
      "stateMutability": "view"
    },
    {
      "type": "function",
      "name": "verifyWorldIDV3ProofAndStoreIntoOnChainStorage",
      "inputs": [
        {
          "name": "root",
          "type": "uint256",
          "internalType": "uint256"
        },
        {
          "name": "signalHash",
          "type": "uint256",
          "internalType": "uint256"
        },
        {
          "name": "nullifierHash",
          "type": "uint256",
          "internalType": "uint256"
        },
        {
          "name": "externalNullifierHash",
          "type": "uint256",
          "internalType": "uint256"
        },
        {
          "name": "proof",
          "type": "uint256[8]",
          "internalType": "uint256[8]"
        }
      ],
      "outputs": [],
      "stateMutability": "nonpayable"
    },
    {
      "type": "function",
      "name": "worldIdRouter",
      "inputs": [],
      "outputs": [
        {
          "name": "",
          "type": "address",
          "internalType": "contract IWorldID"
        }
      ],
      "stateMutability": "view"
    },
    {
      "type": "error",
      "name": "InvalidNullifier",
      "inputs": []
    }
  ],
  "bytecode": {
    "object": "0x60a0604052348015600f57600080fd5b506040516104bb3803806104bb833981016040819052602c91603c565b6001600160a01b0316608052606a565b600060208284031215604d57600080fd5b81516001600160a01b0381168114606357600080fd5b9392505050565b60805161042861009360003960008181610100015281816101f401526102aa01526104286000f3fe608060405234801561001057600080fd5b506004361061006d5760003560e01c8063180d6e82146100725780631f79a1e91461009a578063321a5ddb146100bd5780634dd9c0b5146100d25780639404e48f146100e85780639f50b66d146100fb578063f726a4c31461013a575b600080fd5b610085610080366004610321565b61015a565b60405190151581526020015b60405180910390f35b6100856100a8366004610351565b60006020819052908152604090205460ff1681565b6100d06100cb36600461036a565b6101ad565b005b6100da600181565b604051908152602001610091565b6100d06100f636600461036a565b610293565b6101227f000000000000000000000000000000000000000000000000000000000000000081565b6040516001600160a01b039091168152602001610091565b6100da610148366004610321565b60016020526000908152604090205481565b6001600160a01b0381166000908152600160209081526040808320548084529183905282205460ff16811580159061019457506001811515145b156101a3575060019392505050565b5060009392505050565b60008381526020819052604090205460ff16156101dd57604051632ec8265960e11b815260040160405180910390fd5b604051633bc778e360e01b81526001600160a01b037f00000000000000000000000000000000000000000000000000000000000000001690633bc778e39061023490889060019089908990899089906004016103ba565b60006040518083038186803b15801561024c57600080fd5b505afa158015610260573d6000803e3d6000fd5b505050600084815260208181526040808320805460ff191660019081179091553384529091529020939093555050505050565b604051633bc778e360e01b81526001600160a01b037f00000000000000000000000000000000000000000000000000000000000000001690633bc778e3906102ea90889060019089908990899089906004016103ba565b60006040518083038186803b15801561030257600080fd5b505afa158015610316573d6000803e3d6000fd5b505050505050505050565b60006020828403121561033357600080fd5b81356001600160a01b038116811461034a57600080fd5b9392505050565b60006020828403121561036357600080fd5b5035919050565b6000806000806000610180868803121561038357600080fd5b8535945060208601359350604086013592506060860135915061018086018710156103ad57600080fd5b5092959194509260800190565b60006101a0820190508782528660208301528560408301528460608301528360808301526101008360a084013797965050505050505056fea264697066735822122089d1f75e13198fc8a12701f5a966a1b4b35d1f1ff01bfcac1186c3825deaf2ab64736f6c634300081c0033",
    "linkReferences": {}
  },
  "methodIdentifiers": {
    "GROUP_ID()": "4dd9c0b5",
    "hasWorldIDV3Badge(address)": "180d6e82",
    "nullifierHashes(uint256)": "1f79a1e9",
    "nullifierHashesWithWalletAddresses(address)": "f726a4c3",
    "verifyWorldIDV3Proof(uint256,uint256,uint256,uint256,uint256[8])": "9404e48f",
    "verifyWorldIDV3ProofAndStoreIntoOnChainStorage(uint256,uint256,uint256,uint256,uint256[8])": "321a5ddb",
    "worldIdRouter()": "9f50b66d"
  },
  "id": 0
}