{"abi":[{"type":"constructor","inputs":[{"name":"_worldIdRouter","type":"address","internalType":"contract IWorldID"}],"stateMutability":"nonpayable"},{"type":"function","name":"GROUP_ID","inputs":[],"outputs":[{"name":"","type":"uint256","internalType":"uint256"}],"stateMutability":"view"},{"type":"function","name":"hasWorldIDV3Badge","inputs":[{"name":"walletAddress","type":"address","internalType":"address"}],"outputs":[{"name":"_hasWorldIdV3Badge","type":"bool","internalType":"bool"}],"stateMutability":"view"},{"type":"function","name":"nullifierHashes","inputs":[{"name":"","type":"uint256","internalType":"uint256"}],"outputs":[{"name":"","type":"bool","internalType":"bool"}],"stateMutability":"view"},{"type":"function","name":"nullifierHashesWithWalletAddresses","inputs":[{"name":"","type":"address","internalType":"address"}],"outputs":[{"name":"","type":"uint256","internalType":"uint256"}],"stateMutability":"view"},{"type":"function","name":"verifyWorldIDV3Proof","inputs":[{"name":"appId","type":"string","internalType":"string"},{"name":"actionId","type":"string","internalType":"string"},{"name":"root","type":"uint256","internalType":"uint256"},{"name":"signalHash","type":"uint256","internalType":"uint256"},{"name":"nullifierHash","type":"uint256","internalType":"uint256"},{"name":"externalNullifierHash","type":"uint256","internalType":"uint256"},{"name":"proof","type":"uint256[8]","internalType":"uint256[8]"}],"outputs":[],"stateMutability":"view"},{"type":"function","name":"verifyWorldIDV3ProofAndStoreIntoOnChainStorage","inputs":[{"name":"appId","type":"string","internalType":"string"},{"name":"actionId","type":"string","internalType":"string"},{"name":"root","type":"uint256","internalType":"uint256"},{"name":"signalHash","type":"uint256","internalType":"uint256"},{"name":"nullifierHash","type":"uint256","internalType":"uint256"},{"name":"proof","type":"uint256[8]","internalType":"uint256[8]"}],"outputs":[],"stateMutability":"nonpayable"},{"type":"function","name":"worldIdRouter","inputs":[],"outputs":[{"name":"","type":"address","internalType":"contract IWorldID"}],"stateMutability":"view"},{"type":"event","name":"Verified","inputs":[{"name":"nullifierHash","type":"uint256","indexed":false,"internalType":"uint256"}],"anonymous":false},{"type":"error","name":"InvalidNullifier","inputs":[]}],"bytecode":{"object":"0x60a0604052348015600f57600080fd5b5060405161077c38038061077c833981016040819052602c91603c565b6001600160a01b0316608052606a565b600060208284031215604d57600080fd5b81516001600160a01b0381168114606357600080fd5b9392505050565b6080516106ea6100926000396000818160ed015281816101d301526102a301526106ea6000f3fe608060405234801561001057600080fd5b506004361061006d5760003560e01c8063180d6e82146100725780631f79a1e91461009a5780634dd9c0b5146100bd5780639cde8fb6146100d35780639f50b66d146100e8578063d17ddac914610127578063f726a4c31461013a575b600080fd5b6100856100803660046103dd565b61015a565b60405190151581526020015b60405180910390f35b6100856100a836600461040d565b60006020819052908152604090205460ff1681565b6100c5600181565b604051908152602001610091565b6100e66100e13660046104dd565b6101ad565b005b61010f7f000000000000000000000000000000000000000000000000000000000000000081565b6040516001600160a01b039091168152602001610091565b6100e661013536600461057f565b61024d565b6100c56101483660046103dd565b60016020526000908152604090205481565b6001600160a01b0381166000908152600160209081526040808320548084529183905282205460ff16811580159061019457506001811515145b156101a3575060019392505050565b5060009392505050565b60006101b98888610344565b604051633bc778e360e01b81529091506001600160a01b037f00000000000000000000000000000000000000000000000000000000000000001690633bc778e3906102139089906001908a908a9088908a90600401610616565b60006040518083038186803b15801561022b57600080fd5b505afa15801561023f573d6000803e3d6000fd5b505050505050505050505050565b60008281526020819052604090205460ff161561027d57604051632ec8265960e11b815260040160405180910390fd5b60006102898787610344565b604051633bc778e360e01b81529091506001600160a01b037f00000000000000000000000000000000000000000000000000000000000000001690633bc778e3906102e39088906001908990899088908a90600401610616565b60006040518083038186803b1580156102fb57600080fd5b505afa15801561030f573d6000803e3d6000fd5b505050600084815260208181526040808320805460ff1916600190811790915533845290915290209390935550505050505050565b60008061036f8460405160200161035b9190610672565b6040516020818303038152906040526103a8565b8360405160200161038192919061068e565b6040516020818303038152906040529050600061039d826103a8565b925050505b92915050565b60006008826040516020016103bd9190610672565b60408051601f198184030181529190528051602090910120901c92915050565b6000602082840312156103ef57600080fd5b81356001600160a01b038116811461040657600080fd5b9392505050565b60006020828403121561041f57600080fd5b5035919050565b634e487b7160e01b600052604160045260246000fd5b600082601f83011261044d57600080fd5b813567ffffffffffffffff81111561046757610467610426565b604051601f8201601f19908116603f0116810167ffffffffffffffff8111828210171561049657610496610426565b6040528181528382016020018510156104ae57600080fd5b816020850160208301376000918101602001919091529392505050565b8061010081018310156103a257600080fd5b60008060008060008060006101c0888a0312156104f957600080fd5b873567ffffffffffffffff81111561051057600080fd5b61051c8a828b0161043c565b975050602088013567ffffffffffffffff81111561053957600080fd5b6105458a828b0161043c565b96505060408801359450606088013593506080880135925060a088013591506105718960c08a016104cb565b905092959891949750929550565b6000806000806000806101a0878903121561059957600080fd5b863567ffffffffffffffff8111156105b057600080fd5b6105bc89828a0161043c565b965050602087013567ffffffffffffffff8111156105d957600080fd5b6105e589828a0161043c565b95505060408701359350606087013592506080870135915061060a8860a089016104cb565b90509295509295509295565b60006101a0820190508782528660208301528560408301528460608301528360808301526101008360a0840137979650505050505050565b60005b83811015610669578181015183820152602001610651565b50506000910152565b6000825161068481846020870161064e565b9190910192915050565b828152600082516106a681602085016020870161064e565b91909101602001939250505056fea2646970667358221220daf4064b7dee18b77b76f6864a907f877e49182b94adca85ca718e8a28c14fe864736f6c634300081c0033","linkReferences":{}},"methodIdentifiers":{"GROUP_ID()":"4dd9c0b5","hasWorldIDV3Badge(address)":"180d6e82","nullifierHashes(uint256)":"1f79a1e9","nullifierHashesWithWalletAddresses(address)":"f726a4c3","verifyWorldIDV3Proof(string,string,uint256,uint256,uint256,uint256,uint256[8])":"9cde8fb6","verifyWorldIDV3ProofAndStoreIntoOnChainStorage(string,string,uint256,uint256,uint256,uint256[8])":"d17ddac9","worldIdRouter()":"9f50b66d"},"id":0}