{
  "abi": [
    {
      "type": "constructor",
      "inputs": [
        {
          "name": "_worldIdRouter",
          "type": "address",
          "internalType": "contract IWorldID"
        }
      ],
      "stateMutability": "nonpayable"
    },
    {
      "type": "function",
      "name": "GROUP_ID",
      "inputs": [],
      "outputs": [
        {
          "name": "",
          "type": "uint256",
          "internalType": "uint256"
        }
      ],
      "stateMutability": "view"
    },
    {
      "type": "function",
      "name": "hasWorldIDV3Badge",
      "inputs": [
        {
          "name": "walletAddress",
          "type": "address",
          "internalType": "address"
        }
      ],
      "outputs": [
        {
          "name": "_hasWorldIdV3Badge",
          "type": "bool",
          "internalType": "bool"
        }
      ],
      "stateMutability": "view"
    },
    {
      "type": "function",
      "name": "nullifierHashes",
      "inputs": [
        {
          "name": "",
          "type": "uint256",
          "internalType": "uint256"
        }
      ],
      "outputs": [
        {
          "name": "",
          "type": "bool",
          "internalType": "bool"
        }
      ],
      "stateMutability": "view"
    },
    {
      "type": "function",
      "name": "nullifierHashesWithWalletAddresses",
      "inputs": [
        {
          "name": "",
          "type": "address",
          "internalType": "address"
        }
      ],
      "outputs": [
        {
          "name": "",
          "type": "uint256",
          "internalType": "uint256"
        }
      ],
      "stateMutability": "view"
    },
    {
      "type": "function",
      "name": "verifyWorldIDV3Proof",
      "inputs": [
        {
          "name": "appId",
          "type": "string",
          "internalType": "string"
        },
        {
          "name": "actionId",
          "type": "string",
          "internalType": "string"
        },
        {
          "name": "root",
          "type": "uint256",
          "internalType": "uint256"
        },
        {
          "name": "signalHash",
          "type": "uint256",
          "internalType": "uint256"
        },
        {
          "name": "nullifierHash",
          "type": "uint256",
          "internalType": "uint256"
        },
        {
          "name": "proof",
          "type": "uint256[8]",
          "internalType": "uint256[8]"
        }
      ],
      "outputs": [],
      "stateMutability": "view"
    },
    {
      "type": "function",
      "name": "verifyWorldIDV3ProofAndStoreIntoOnChainStorage",
      "inputs": [
        {
          "name": "appId",
          "type": "string",
          "internalType": "string"
        },
        {
          "name": "actionId",
          "type": "string",
          "internalType": "string"
        },
        {
          "name": "root",
          "type": "uint256",
          "internalType": "uint256"
        },
        {
          "name": "signalHash",
          "type": "uint256",
          "internalType": "uint256"
        },
        {
          "name": "nullifierHash",
          "type": "uint256",
          "internalType": "uint256"
        },
        {
          "name": "proof",
          "type": "uint256[8]",
          "internalType": "uint256[8]"
        }
      ],
      "outputs": [],
      "stateMutability": "nonpayable"
    },
    {
      "type": "function",
      "name": "worldIdRouter",
      "inputs": [],
      "outputs": [
        {
          "name": "",
          "type": "address",
          "internalType": "contract IWorldID"
        }
      ],
      "stateMutability": "view"
    },
    {
      "type": "event",
      "name": "Verified",
      "inputs": [
        {
          "name": "nullifierHash",
          "type": "uint256",
          "indexed": false,
          "internalType": "uint256"
        }
      ],
      "anonymous": false
    },
    {
      "type": "error",
      "name": "InvalidNullifier",
      "inputs": []
    }
  ],
  "bytecode": {
    "object": "0x60a0604052348015600f57600080fd5b506040516106cd3803806106cd833981016040819052602c91603c565b6001600160a01b0316608052606a565b600060208284031215604d57600080fd5b81516001600160a01b0381168114606357600080fd5b9392505050565b60805161063b6100926000396000818160d80152818161020301526102ca015261063b6000f3fe608060405234801561001057600080fd5b506004361061006d5760003560e01c8063180d6e82146100725780631f79a1e91461009a5780634dd9c0b5146100bd5780639f50b66d146100d3578063d17ddac914610112578063ec662ce714610127578063f726a4c31461013a575b600080fd5b6100856100803660046103da565b61015a565b60405190151581526020015b60405180910390f35b6100856100a836600461040a565b60006020819052908152604090205460ff1681565b6100c5600181565b604051908152602001610091565b6100fa7f000000000000000000000000000000000000000000000000000000000000000081565b6040516001600160a01b039091168152602001610091565b6101256101203660046104c8565b6101ad565b005b6101256101353660046104c8565b6102a4565b6100c56101483660046103da565b60016020526000908152604090205481565b6001600160a01b0381166000908152600160209081526040808320548084529183905282205460ff16811580159061019457506001811515145b156101a3575060019392505050565b5060009392505050565b60008281526020819052604090205460ff16156101dd57604051632ec8265960e11b815260040160405180910390fd5b60006101e98787610343565b604051633bc778e360e01b81529091506001600160a01b037f00000000000000000000000000000000000000000000000000000000000000001690633bc778e3906102439088906001908990899088908a90600401610567565b60006040518083038186803b15801561025b57600080fd5b505afa15801561026f573d6000803e3d6000fd5b505050600084815260208181526040808320805460ff1916600190811790915533845290915290209390935550505050505050565b60006102b08787610343565b604051633bc778e360e01b81529091506001600160a01b037f00000000000000000000000000000000000000000000000000000000000000001690633bc778e39061030a9088906001908990899088908a90600401610567565b60006040518083038186803b15801561032257600080fd5b505afa158015610336573d6000803e3d6000fd5b5050505050505050505050565b60008061036e8460405160200161035a91906105c3565b6040516020818303038152906040526103a5565b836040516020016103809291906105df565b6040516020818303038152906040529050600061039c826103a5565b95945050505050565b60006008826040516020016103ba91906105c3565b60408051601f198184030181529190528051602090910120901c92915050565b6000602082840312156103ec57600080fd5b81356001600160a01b038116811461040357600080fd5b9392505050565b60006020828403121561041c57600080fd5b5035919050565b634e487b7160e01b600052604160045260246000fd5b600082601f83011261044a57600080fd5b813567ffffffffffffffff81111561046457610464610423565b604051601f8201601f19908116603f0116810167ffffffffffffffff8111828210171561049357610493610423565b6040528181528382016020018510156104ab57600080fd5b816020850160208301376000918101602001919091529392505050565b6000806000806000806101a087890312156104e257600080fd5b863567ffffffffffffffff8111156104f957600080fd5b61050589828a01610439565b965050602087013567ffffffffffffffff81111561052257600080fd5b61052e89828a01610439565b9550506040870135935060608701359250608087013591506101a0870188101561055757600080fd5b60a0870190509295509295509295565b60006101a0820190508782528660208301528560408301528460608301528360808301526101008360a0840137979650505050505050565b60005b838110156105ba5781810151838201526020016105a2565b50506000910152565b600082516105d581846020870161059f565b9190910192915050565b828152600082516105f781602085016020870161059f565b91909101602001939250505056fea26469706673582212201f024e158fdb401e35abaa03f41d19b582653bdb7b767b961c8257bd1cb2a02a64736f6c634300081c0033",
    "linkReferences": {}
  },
  "methodIdentifiers": {
    "GROUP_ID()": "4dd9c0b5",
    "hasWorldIDV3Badge(address)": "180d6e82",
    "nullifierHashes(uint256)": "1f79a1e9",
    "nullifierHashesWithWalletAddresses(address)": "f726a4c3",
    "verifyWorldIDV3Proof(string,string,uint256,uint256,uint256,uint256[8])": "ec662ce7",
    "verifyWorldIDV3ProofAndStoreIntoOnChainStorage(string,string,uint256,uint256,uint256,uint256[8])": "d17ddac9",
    "worldIdRouter()": "9f50b66d"
  },
  "id": 0
}